:10000000601C0020ED520000A1BB0000C1520000A6
:10001000C1520000C1520000C152000000000000A7
:10002000000000000000000000000000C54F0000BC
:10003000C1520000000000006D4F0000C1520000DE
:10004000795000007950000079500000795000008C
:10005000795000007950000079500000795000007C
:10006000795000007950000079500000795000006C
:10007000795000007950000079500000795000005C
:10008000795000007950000079500000795000004C
:10009000795000007950000079500000795000003C
:1000A000795000007950000079500000795000002C
:1000B000795000007950000079500000795000001C
:1000C000795000007950000079500000795000000C
:1000D00079500000795000007950000079500000FC
:1000E00079500000795000007950000079500000EC
:1000F00079500000795000007950000079500000DC
:1001000001F0FF01102A2BDB10F0070F08D010F8C8
:10011000013B013A8B422DD010F0070F42B3F6D1CC
:10012000F0B441EA012141EA014122F007047FF0E5
:1001300000070023F0E80256083C85EA010586EA3C
:10014000010685FA47F5A3FA87F586FA47F6A5FA78
:1001500087F68EB9EED1F0BC01F0FF0102F0070284
:1001600032B110F8013B013A83EA010313B1F8D12F
:100170000020704701387047002D06BF3546033810
:10018000073815F0010F07D1013015F4807F02BF49
:10019000013015F4C03F0130F0BC0138704700BF9A
:1001A00081F0004102E000BF83F0004330B54FEA28
:1001B00041044FEA430594EA050F08BF90EA020F95
:1001C0001FBF54EA000C55EA020C7FEA645C7FEA28
:1001D000655C00F0E2804FEA5454D4EB5555B8BF4B
:1001E0006D420CDD2C4480EA020281EA030382EABC
:1001F000000083EA010180EA020281EA0303362D4E
:1002000088BF30BD11F0004F4FEA01314FF4801C20
:100210004CEA113102D0404261EB410113F0004F32
:100220004FEA03334CEA133302D0524263EB4303E9
:1002300094EA050F00F0A780A4F10104D5F1200E87
:100240000DDB02FA0EFC22FA05F2801841F10001E2
:1002500003FA0EF2801843FA05F359410EE0A5F1B6
:1002600020050EF1200E012A03FA0EFC28BF4CF0E7
:10027000020C43FA05F3C01851EBE37101F000459D
:1002800007D54FF0000EDCF1000C7EEB00006EEBAA
:100290000101B1F5801F1BD3B1F5001F0CD3490834
:1002A0005FEA30004FEA3C0C04F101044FEA44528B
:1002B00012F5800F80F09A80BCF1004F08BF5FEA12
:1002C000500C50F1000041EB045141EA050130BDF2
:1002D0005FEA4C0C404141EB0101013C28BFB1F504
:1002E000801FE9D291F0000F04BF01460020B1FA4F
:1002F00081F308BF2033A3F10B03B3F120020CDA22
:100300000C3208DD02F1140CC2F10C0201FA0CF0FF
:1003100021FA02F10CE002F11402D8BFC2F1200C64
:1003200001FA02F120FA0CFCDCBF41EA0C0190401A
:10033000E41AA2BF01EB0451294330BD6FEA040463
:100340001F3C1CDA0C340EDC04F11404C4F120024E
:1003500020FA04F001FA02F340EA030021FA04F360
:1003600045EA030130BDC4F10C04C4F1200220FAB7
:1003700002F001FA04F340EA0300294630BD21FAF5
:1003800004F0294630BD94F0000F83F4801306BFBB
:1003900081F480110134013D4EE77FEA645C18BFAF
:1003A0007FEA655C29D094EA050F08BF90EA020F46
:1003B00005D054EA000C04BF1946104630BD91EA3E
:1003C000030F1EBF0021002030BD5FEA545C05D141
:1003D0004000494128BF41F0004130BD14F5800480
:1003E0003CBF01F5801130BD01F0004545F0FE41F4
:1003F00041F470014FF0000030BD7FEA645C1ABF29
:10040000194610467FEA655C1CBF0B46024650EA5F
:10041000013406BF52EA033591EA030F41F400218B
:1004200030BD00BF90F0000F04BF0021704730B511
:100430004FF4806404F132044FF000054FF00001E6
:1004400050E700BF90F0000F04BF0021704730B5A7
:100450004FF4806404F1320410F0004548BF40427C
:100460004FF000013EE700BF42004FEAE2014FEAD1
:1004700031014FEA02701FBF12F07F4393F07F4FAC
:1004800081F06051704732F07F4208BF704793F0AF
:100490007F4F04BF41F40021704730B54FF46074C2
:1004A00001F0004521F000411CE700BF50EA0102C5
:1004B00008BF704730B54FF000050AE050EA01026E
:1004C00008BF704730B511F0004502D5404261EBDE
:1004D00041014FF4806404F132045FEA915C3FF41F
:1004E000D8AE4FF003025FEADC0C18BF03325FEABC
:1004F000DC0C18BF033202EBDC02C2F1200300FA6D
:1005000003FC20FA02F001FA03FE40EA0E0021FA91
:1005100002F11444BDE600BF70B54FF0FF0C4CF47F
:10052000E06C1CEA11541DBF1CEA135594EA0C0F31
:1005300095EA0C0F00F0DEF82C4481EA030621EA6C
:100540004C5123EA4C5350EA013518BF52EA0335A7
:1005500041F4801143F4801338D0A0FB02CE4FF059
:100560000005E1FB02E506F00042E0FB03E54FF089
:100570000006E1FB03569CF0000F18BF4EF0010E81
:10058000A4F1FF04B6F5007F64F5407404D25FEA7D
:100590004E0E6D4146EB060642EAC62141EA555130
:1005A0004FEAC52040EA5E504FEACE2EB4F1FD0C72
:1005B00088BFBCF5E06F1ED8BEF1004F08BF5FEAF0
:1005C000500E50F1000041EB045170BD06F00046A2
:1005D00046EA010140EA020081EA0301B4EB5C044F
:1005E000C2BFD4EB0C0541EA045170BD41F4801147
:1005F0004FF0000E013C00F3AB8014F1360FDEBF6C
:10060000002001F0004170BDC4F10004203C35DA47
:100610000C341BDC04F11404C4F1200500FA05F3CA
:1006200020FA04F001FA05F240EA020001F000426B
:1006300021F0004110EBD37021FA04F642EB0601E1
:100640005EEA430E08BF20EAD37070BDC4F10C040B
:10065000C4F1200500FA04F320FA05F001FA04F2CF
:1006600040EA020001F0004110EBD37041F10001BB
:100670005EEA430E08BF20EAD37070BDC4F12005C6
:1006800000FA05F24EEA020E20FA04F301FA05F22E
:1006900043EA020321FA04F001F0004121FA04F2D6
:1006A00020EA020000EBD3705EEA430E08BF20EAA6
:1006B000D37070BD94F0000F0FD101F000464000E0
:1006C00041EB010111F4801F08BF013CF7D041EA62
:1006D000060195F0000F18BF704703F00046520066
:1006E00043EB030313F4801F08BF013DF7D043EA37
:1006F0000603704794EA0C0F0CEA135518BF95EAED
:100700000C0F0CD050EA410618BF52EA4306D1D173
:1007100081EA030101F000414FF0000070BD50EA92
:10072000410606BF1046194652EA430619D094EA1C
:100730000C0F02D150EA013613D195EA0C0F05D106
:1007400052EA03361CBF104619460AD181EA03015A
:1007500001F0004141F0FE4141F470014FF0000012
:1007600070BD41F0FE4141F4780170BD70B54FF0AD
:10077000FF0C4CF4E06C1CEA11541DBF1CEA13552D
:1007800094EA0C0F95EA0C0F00F0A7F8A4EB05040F
:1007900081EA030E52EA03354FEA013100F0888006
:1007A0004FEA03334FF0805545EA131343EA1263CF
:1007B0004FEA022245EA111545EA10654FEA002684
:1007C0000EF000419D4208BF964244F1FD0404F53D
:1007D000407402D25B084FEA3202B61A65EB030599
:1007E0005B084FEA32024FF480104FF4002CB6EB56
:1007F000020E75EB030E22BFB61A754640EA0C00D6
:100800005B084FEA3202B6EB020E75EB030E22BF15
:10081000B61A754640EA5C005B084FEA3202B6EB56
:10082000020E75EB030E22BFB61A754640EA9C0015
:100830005B084FEA3202B6EB020E75EB030E22BFE5
:10084000B61A754640EADC0055EA060E18D04FEAA3
:10085000051545EA16754FEA06164FEAC30343EA43
:1008600052734FEAC2025FEA1C1CC0D111F4801F10
:100870000BD141EA00014FF000004FF0004CB6E709
:1008800011F4801F04BF01430020B4F1FD0C88BFA8
:10089000BCF5E06F3FF6AFAEB5EB030C04BFB6EBB3
:1008A000020C5FEA500C50F1000041EB045170BDA6
:1008B0000EF0004E4EEA113114EB5C04C2BFD4EBD3
:1008C0000C0541EA045170BD41F480114FF0000E57
:1008D000013C90E645EA060E8DE60CEA135594EAD3
:1008E0000C0F08BF95EA0C0F3FF43BAF94EA0C0FD6
:1008F0000AD150EA01347FF434AF95EA0C0F7FF44B
:1009000025AF104619462CE795EA0C0F06D152EA9E
:1009100003353FF4FDAE1046194622E750EA410682
:1009200018BF52EA43067FF4C5AE50EA41047FF493
:100930000DAF52EA43057FF4EBAE12E753B94AB963
:10094000002908BF00281CBF4FF0FF314FF0FF30D7
:1009500000F00CB8ADF1080C6DE904CE00F0CEF853
:10096000DDF804E0DDE9022304B07047704700BF02
:100970004FF0FF3C06E000BF4FF0010C02E000BF6B
:100980004FF0010C4DF804CD4FEA410C7FEA6C5C4E
:100990004FEA430C18BF7FEA6C5C1BD001B050EAF1
:1009A000410C0CBF52EA430C91EA030F02BF90EADC
:1009B000020F0020704710F1000F91EA030F58BF9B
:1009C000994208BF90422CBFD8176FEAE37040F0FD
:1009D000010070474FEA410C7FEA6C5C02D150EA9B
:1009E000013C07D14FEA430C7FEA6C5CD6D152EA56
:1009F000033CD3D05DF8040B704700BF844610461B
:100A000062468C461946634600E000BF01B5FFF719
:100A1000B7FF002848BF10F1000F01BD4DF808EDE9
:100A2000FFF7F4FF0CBF012000205DF808FB00BFBA
:100A30004DF808EDFFF7EAFF34BF012000205DF814
:100A400008FB00BF4DF808EDFFF7E0FF94BF012061
:100A500000205DF808FB00BF4DF808EDFFF7CEFF62
:100A600094BF012000205DF808FB00BF4DF808EDA1
:100A7000FFF7C4FF34BF012000205DF808FB00BF72
:100A80004FEA410C7FEA6C5C02D150EA013C0AD18A
:100A90004FEA430C7FEA6C5C02D152EA033C02D17C
:100AA0004FF0000070474FF0010070474FEA4102DD
:100AB00012F5001215D211D56FF47873B3EB6252B0
:100AC00012D94FEAC12343F0004343EA505311F0D7
:100AD000004F23FA02F018BF404270474FF0000069
:100AE000704750EA013005D111F0004008BF6FF0A7
:100AF000004070474FF00000704700BF2DE9F04FF5
:100B000007468C460846099E15463C461946002B6A
:100B100040F0C6808242B2FA82F746D94FB1C7F19F
:100B2000200E24FA0EFE00FA07F3BD404EEA030C35
:100B3000BC404FEA15481FFA85FEBCFBF8F9220CB1
:100B400008FB19C309FB0EFA42EA03439A4528D968
:100B5000EB1809F1FF3004D29A4502D9A9F102003D
:100B60002B44A3EB0A03A4B2B3FBF8F208FB123345
:100B700002FB0EFE44EA0344A64514D92C1902F1E7
:100B8000FF3303D2A64501D9931E2C44A4EB0E04D7
:100B900043EA00401EB1FC40002334607360BDE8AE
:100BA000F08F4846DDE71346F0E702B9FFDE87BB6A
:100BB000831A01214FEA154EAAB2B3FBFEFC200CAA
:100BC0000EFB1C330CFB02F840EA0343984563D943
:100BD000EB180CF1FF3004D2984502D9ACF10200B9
:100BE0002B44A3EB0803A4B2B3FBFEFC0EFB1C33A7
:100BF0000CFB02F244EA0344A2424FD92C190CF137
:100C0000FF3304D2A24202D9ACF102032C44A41A4D
:100C1000BEE7C7F1200C20FA0CF800FA07F324FA1B
:100C20000CFCBD404CEA03024FEA154EABB2B8FBD8
:100C3000FEFC110C0EFB1C800CFB03F941EA00408A
:100C4000814504FA07F423D928180CF1FF3104D2A6
:100C5000814502D9ACF102012844A0EB090092B20F
:100C6000B0FBFEFC0EFB1C000CFB03F842EA004349
:100C700098450FD9EB180CF1FF3204D2984502D9F0
:100C8000ACF102022B44A3EB080342EA014191E7D5
:100C90006146E2E76246F6E76046A2E76346B6E7EA
:100CA000834205D90EB1C6E900700021084676E7F7
:100CB000B3FA83F181B9834201D3BA420AD8BC1A8C
:100CC00060EB030301209C46002E68D0C6E9004C6F
:100CD000002164E70846F7E7C1F1200C8B4022FAB7
:100CE0000CF41C4302FA01F500FA01F327FA0CF2A6
:100CF00020FA0CFB4FEA14491343BBFBF9F81FFA27
:100D000084FE09FB18BB1A0C08FB0EFA42EA0B42E0
:100D1000924507FA01F73ED9A21808F1FF3004D234
:100D2000924502D9A8F102002244A2EB0A029BB22A
:100D3000B2FBF9F809FB182208FB0EFE43EA024257
:100D400096452AD9A21808F1FF3304D2964502D954
:100D5000A8F10203224443EA0040A0FB0593A2EB62
:100D60000E029A42CE46984602D306D14F4504D28F
:100D7000B9EB050E63EB0408013886B1B7EB0E033F
:100D800062EB080707FA0CFCCB404CEA0303CF40A8
:100D9000C6E900379CE74046C7E74346DBE73146F4
:100DA000FDE610F8012B11F8013B012A28BF9A42F9
:100DB000F7D0D01A7047034613F8012B002AFBD155
:100DC000181A0138704700002DE9F04F87B0624CC7
:100DD00020460BF02CFB80B175230DF1020202A915
:100DE00068208DF8083000F0BDFE00280BDA5B4863
:100DF00009F0B9FD07B0BDE8F08F594807B0BDE86C
:100E0000F04F09F0B0BD9DF80210564809F0ABFD57
:100E10009DF80250682D01D05348E9E76B260DF18B
:100E2000030202A928468DF8086000F09BFEB8B9BD
:100E30009DF8033003F0BF0233F0BF0314D001ABC1
:100E4000029302238DF804608DF8052003938DF83A
:100E50001030A36801229E6802A92B462046B047A5
:100E6000002801DA4148C3E74148424D09F07BFDC3
:100E700037A7D7E90067002402A93B2009F025FD28
:100E80000DF109013C2009F020FD0DF10A013D2082
:100E900009F01BFD0DF10B013E2009F016FD03A921
:100EA0003F2009F012FD0DF10901402009F00DFD70
:100EB0009DF80B309DF80A0003EB0020FFF7C2FA03
:100EC0009DF80D3080469DF80C0003EB002089460C
:100ED000FFF7B8FA9DF8093082469DF8080003EB49
:100EE00000208B46FFF7AEFA32463B46FFF714FB75
:100EF00022462B46FFF73AFC02460B461E4809F0F5
:100F000032FD32463B4640464946FFF705FB224646
:100F10002B46FFF72BFC02460B46184809F023FD31
:100F200032463B4650465946FFF7F6FA22462B46D4
:100F3000FFF71CFC02460B46114809F014FD11484E
:100F400009F011FD00214FF4803007F043FB93E7D7
:100F500008AC1C5A643BCF3FDCD30000B3DD00007B
:100F600098DD0000CCDD0000DADD0000ECDD0000E3
:100F700004DE000000408F401ADE000023DE000087
:100F80002CDE000088DF00002DE9F04F446A99B0A4
:100F900016461F46CDE90467DDF89480054674B90E
:100FA000102007F0CBFE0246686220B9A84BEA2168
:100FB000A84809F029F8C0E901440460C4606B6ADC
:100FC000196851B15A684A60012393408B602846E2
:100FD00008F046FC6B6A00221A603B1EB9BF23F082
:100FE000004305930023C8F80030DDF814909A4BB5
:100FF000BCBF0122C8F8002033EA090319D1249AA2
:1010000042F20F731360C9F31303334300F080857A
:10101000269B53B9914B22E0914B03930833269AB8
:101020001360039819B0BDE8F08F8C4B0393033322
:10103000F5E7DDE90434CDE90C34DDE90C010022EB
:101040000023FFF7EBFC804658B1249A012313607C
:10105000269B002B00F0598582481860431E03939D
:10106000DFE716AB019317AB00932846DDE90C23AD
:1010700008F06EFEC9F30A548346002C7ED00D9B07
:10108000CDF84C80C3F31303DDE90C0143F07F512D
:1010900041F44011A4F2FF34734B0022FFF784F8AF
:1010A00065A3D3E90023FFF737FA65A3D3E900234B
:1010B000FFF77CF8064620460F46FFF7C3F962A308
:1010C000D3E90023FFF728FA02460B46304639469B
:1010D000FFF76CF806460F46FFF7E8FC0022824651
:1010E000002330463946FFF7A3FC48B15046FFF7CE
:1010F000A9F932463B46FFF791FC08B90AF1FF3ADD
:10110000BAF1160F57D8594B03EBCA03D3E90023A2
:10111000DDE90C01FFF78CFC00284ED00AF1FF3A04
:1011200000230F93169B1C1B631E099345BFC4F13C
:1011300001030693002300234CBF09930693BAF1E1
:10114000000F3CDB099BCDF838A0534409930023E2
:101150000A93229B092B00F28D80052BC4BF043B10
:101160002293229BA3F10203CCBF00240124032B72
:1011700000F28C80DFE803F02D4F4D5BDDE9164374
:101180001C4404F23243202BC3BFC3F1400304F2DA
:10119000124009FA03F3C3F12003C6BF26FA00F098
:1011A000184306FA03F0FFF73DF90123A1F1F871A6
:1011B000013C139370E70123B3E70F90B2E7069B5E
:1011C000A3EB0A030693CAF100030A9300230E93CC
:1011D000BFE700230B93239B002B5ADC4FF0010940
:1011E000CDF820904B46CDF88C90686A0022426082
:1011F000042202F114069E42416850D9284608F0A4
:10120000EFFA039000284ED1194B02464FF4D571E6
:10121000CEE60123DEE700230B93239B0AEB0309B1
:1012200009F10103012B0893B8BF0123DDE7012376
:10123000F2E700BFAFF3008061436F63A787D23F3F
:10124000B3C8608B288AC63FFB799F501344D33FB5
:101250003AEF000051EF00000000F07F36EF000091
:101260002DEF00003AED00000000F83F80D60000AE
:10127000ABEF00000124002322930B944FF0FF39C1
:101280000022CDF8209012232392AEE701230B9386
:10129000F4E7DDF88C90CDF820904B46A5E70131BE
:1012A00041605200A5E76B6A039A1A60089B0E2BF7
:1012B00000F2A880002C00F0A580BAF1000F34DD08
:1012C0009A4A0AF00F0302EBC303D3E900341AF47D
:1012D000807FCDE910344FEA2A1416D0944BDDE913
:1012E0000C01D3E90823FFF741FACDE9040104F02A
:1012F0000F0403278E4E54B9DDE91023DDE9040104
:10130000FFF734FACDE9040129E00227F2E7E1070B
:1013100008D5DDE91001D6E90023FFF7FDF8CDE996
:101320001001013764100836E5E700F0A580CAF126
:1013300000047E4B7E4E04F00F0203EBC203D3E9A0
:101340000023DDE90C01FFF7E7F8CDE904012411E2
:1013500000230227002C40F08480002BD2D10F9B69
:10136000002B00F08B80DDE90434CDE91034DDE999
:101370001001704B0022FFF75BFB00287ED0089B1A
:10138000002B7BD0B9F1000F38DDDDE910016A4B8D
:101390000022FFF7C1F8CDE904010AF1FF38013757
:1013A0004C463846FFF74EF8DDE90423FFF7B4F862
:1013B000624B0022FEF7FAFEA1F15076CDE9100152
:1013C0001196002C5DD1DDE904015D4B0022FEF792
:1013D000EBFE02460B46CDE90423109A3346FFF795
:1013E00045FB002840F09C82DDE90401109A06F1DB
:1013F0000043FFF71DFB002840F09082DDE90C342C
:10140000CDE90434179B002BC0F25281BAF10E0FC4
:1014100000F34E81454B03EBCA03D3E90034CDE919
:101420000634239B002B80F2DB80089B002B00F30B
:10143000D78040F07282424B0022DDE90601FFF7BF
:101440006BF8DDE90423FFF707FB089C264600281C
:1014500040F04882039F312307F8013B0AF1010A5B
:1014600044E2E20705D5D6E90023FFF755F8013736
:101470000123641008366DE7022770E7089CD04608
:101480008FE70399294B214412910B9903EBC40375
:10149000DDE9106753E90223002955D029490020CE
:1014A000FFF764F93B463246FEF77EFECDE91001B8
:1014B000039FDDE90401FFF7F9FA0446FEF7C2FFD6
:1014C00002460B46DDE90401FEF76EFE30340246AB
:1014D0000B46CDE9042307F8014BDDE91023FFF7A4
:1014E000A7FA002874D1DDE9042312490020FEF791
:1014F0005BFEDDE91023FFF79BFA002840F0B78080
:10150000129B9F423FF47AAFDDE910010A4B0022A3
:10151000FFF702F8084BCDE910010022DDE90401D4
:10152000FEF7FAFFCDE90401C3E700BF80D6000053
:1015300058D600000000F03F0000244000001C408E
:10154000000014400000E03F30463946FEF7E4FF5B
:10155000CDE91001129B039C1493DDE90401FFF710
:10156000A5FA1590FEF76EFF02460B46DDE9040171
:10157000FEF71AFE159B303304F8013B129B9C4288
:1015800006460F464FF0000224D1A44BDDE91001BE
:10159000FEF70CFE02460B4630463946FFF766FA68
:1015A000002863D1DDE910239C490020FEF7FCFDF3
:1015B00002460B4630463946FFF73AFA00283FF418
:1015C0001DAF149F7B1E149317F8013C302BF8D0ED
:1015D000C2463BE0924BFEF79FFFCDE90401BCE71A
:1015E000DDE90489039FDDE9062340464946FFF70C
:1015F000BDF8FFF75BFA0446FEF724FFDDE906239A
:10160000FEF78AFF04F1300602460B464046494683
:10161000FEF7CAFD07F8016B039EDDF820C0BE1B74
:10162000B44502460B4636D1FEF7C0FDDDE9062380
:1016300080468946FFF71AFA58BBDDE90623404683
:101640004946FFF7EBF908B1E10722D4284659468D
:1016500008F006F900233B70249B0AF10100186092
:10166000269B002B3FF4DDAC1F60DAE427463B46A7
:101670001F4613F8012D392A07D1039A9A42F7D150
:101680000399302208F101080A701A7801321A70A1
:101690009EE7D046EBE7624B0022FEF73DFF0022BB
:1016A000002380468946FFF7B9F900289BD0CDE793
:1016B0000B9A002A00F0D080229A012A00F3B2800F
:1016C000139A002A00F0A68003F233430A9C069F77
:1016D000069A1A440692099A01211A442846099248
:1016E00008F026F90646002F0CDD099B002B09DDCA
:1016F000BB42069AA8BF3B46D21A0692099AFF1A25
:10170000D31A09930A9BF3B10B9B002B00F0A8801E
:10171000002C10DD31462246284608F0C7F95A460B
:1017200001460646284608F019F9594680462846DB
:1017300008F096F8C3460A9B1A1B04D0594628465F
:1017400008F0B4F983460121284608F0F1F80E9B11
:10175000002B044640F386801A460146284608F0CE
:10176000A5F9229B012B04467FDD4FF00008236979
:1017700004EB830318690BF0B3FBC0F12000099B55
:10178000184410F01F0000F09280C0F12003042BD9
:1017900040F38A80C0F11C00069B03440693099B1A
:1017A000034407440993069B002B05DD59461A465E
:1017B000284608F0D5F98346099B002B05DD214614
:1017C0001A46284608F0CCF904460F9B002B70D02F
:1017D000214658460BF0D1FB00286ADA002359460F
:1017E0000A22284608F05EF80B9B0AF1FF3A83466E
:1017F000002B00F09481314600230A22284608F08D
:1018000051F8B9F1000F064600F39380229B022B9A
:1018100057DC8EE0169BC3F1360357E70000E03F2C
:1018200000002440089B5C1E0A9BA342BFBF0A9B8A
:101830000A94E21A0E9BB6BF9B181C1B0E93089BC2
:10184000B8BF0024002BB9BF069B089A069F089BCF
:10185000BCBF9F1A00233BE70A9C069F0B9E42E7F2
:101860000A9A6BE7229B012B19DC049BBBB9059BF1
:10187000C3F313039BB9059B23F000431B0D1B050A
:1018800083B1069B01330693099B013309934FF003
:1018900001080E9B002B7FF46AAF01206FE74FF029
:1018A0000008F6E79846F4E73FF47DAF18461C3091
:1018B00072E7089B002B36DC229B022B33DDDDF820
:1018C0002090B9F1000F0DD121464B460522284644
:1018D00007F0E8FF0146044658460BF04EFB00288F
:1018E0003FF7B8AD239B039F6FEA030A4FF0000850
:1018F0002146284607F0B4FF002E3FF4A7AEB8F10A
:10190000000F05D0B04503D04146284607F0A8FF98
:101910003146284607F0A4FF98E600242646E1E772
:10192000C246264696E50B9BDDF82090002B00F082
:10193000FD80002F05DD31463A46284608F010F9B3
:101940000646B8F1000F5CD07168284607F048FFE2
:10195000074628B9804B024640F2EA21FFF728BB30
:1019600032690232920006F10C010C300BF098F84B
:1019700001223946284608F0F3F8039B0133089307
:10198000039B4B440A93049B03F00103B046099365
:101990000646089B2146013B584604930BF019FA72
:1019A000034630330690414658460B930BF0E5FA58
:1019B000324681462146284608F042F9C2680B9B10
:1019C000074602BB014658460BF0D7FA0B9B02466E
:1019D00039462846CDE90B3207F042FF229B0C9A8C
:1019E000089F43EA0201099B0B430B9B0DD1392B46
:1019F00029D0B9F1000F01DD069B3133049A137031
:101A000076E73046B9E70122E2E7B9F1000F06DBDD
:101A1000229941EA0909099959EA010120D1002ACC
:101A2000ECDD594601222846089308F099F8214632
:101A300083460BF0A2FA0028089B02DCDED1DA070D
:101A4000DCD5392BD8D1049A392313703B461F4675
:101A5000013B17F8012C392A50D001321A7047E7A0
:101A6000002A03DD392BEED00133C7E7089A0A9923
:101A700002F8013C8A422AD0594600230A2228460D
:101A800007F010FFB04583464FF000034FF00A0205
:101A90004146284607D107F005FF80460646089BC9
:101AA0000133089375E707F0FDFE314680460023B9
:101AB0000A22284607F0F6FE0646F0E7B9F1000FC5
:101AC000039ACCBF4F46012717444FF000085946F0
:101AD00001222846089308F043F8214683460BF07C
:101AE0004CFA0028B2DC02D1089BDB07AED43B469F
:101AF0001F4613F8012D302AFAD0F9E6039A9A42CC
:101B0000A5D10AF1010A312379E7144BFFF7A7BAEF
:101B1000269B002B7FF480AA114BFFF7A0BAB9F1E6
:101B2000000F03DC229B022B3FF7CBAE039F214625
:101B300058460BF04EF900F1300307F8013B039AC9
:101B4000BA1A9145BADD594600230A22284607F001
:101B5000A9FE8346EBE700BFABEF000039ED0000C4
:101B60002DEF000010B586B0034600910121CDE9AC
:101B700003210020072201918DF808008DF8142020
:101B800003488268694694680222A04706B010BDE7
:101B9000DCD300000B6801330B60014B1B68184756
:101BA00000000020014B1860704700BF00000020BB
:101BB00007B50B46002102460191034801A900F038
:101BC00059F903B05DF804FB951B000030B585B0F2
:101BD000CDE901010446002501A90548039500F05F
:101BE00049F9DDE902309842B8BF255405B030BD4F
:101BF00041A900002DE9F84FB0F8189019F0080835
:101C0000044693460DD001290CBF49F0100949F054
:101C10002009A0F818908BF31188BFF36F8FBDE8EF
:101C2000F88F09F00709022907D1204608F0B5FE10
:101C30000028F0D00128238B4ED16769218B002F1B
:101C400015DA256821F00701C4E9008841F0010197
:101C500021830026218B01F0070ACA4502D0A36820
:101C6000002B5AD10DB9002E71D0002356E001F09F
:101C700007035A1F012A1ED821F00701062B2568E9
:101C800089B2C4E900880AD13DB1638B2A46126843
:101C900001339BB2002AFAD1638341F00201218310
:101CA000204608F07AFE06460028D3D0238B43F066
:101CB00020032383CDE7042B0CD121F0070189B247
:101CC0002183204608F069FE05460028C1D041F076
:101CD000200121830025BCE7032809D1226923F0D4
:101CE0000703166843F00603238300252F46B1E758
:101CF000042806D1226923F00703566843F0040341
:101D0000F2E7052806D1226923F00703966843F01D
:101D10000503E9E700252E46E8E7012341F0080125
:101D200021838BF31188BFF36F8FFBB985BB16B18D
:101D30001F492046B0474FF02003EFF3118B83F388
:101D40001288BFF36F8F238B23F008032383238B29
:101D5000DA0625D523F0100323830121B4F8189067
:101D600009F0070900297FF45EAF54E7A168002954
:101D7000DCD0D1F80090D1F804B03B465246204662
:101D8000D847B9F1000FD1D04946D9F80090F2E711
:101D900029463B46524620462D6808F01AFEC5E704
:101DA00013F020011EBF23F0200323830221D5E777
:101DB000FFA90000F0B5084E026803460A2700207C
:101DC000114601320C78A55D6D0701D41960F0BD94
:101DD00007FB00403038F3E7FBED00002DE9F84F3A
:101DE00015469A46D378224A13F802B06F2B8046E4
:101DF0000F460BF0030B29D024D8582B14BF0A260A
:101E00001026DDF828903246002340463946FEF77A
:101E100095FD092AD4B21ED83034B045E4B277F12A
:101E2000000309F8014D01D3D14511D82B789B0649
:101E300005D5082E15D1AB7843F00803AB704846A2
:101E4000BDE8F88F03F0F703702BD7E70826D8E733
:101E500080460F46D7E7BBF1010F0CBF373457342C
:101E6000DBE7102EEBD1AB7843F01003E6E700BFC1
:101E7000FBED00002DE9F04F81469BB08A461546E8
:101E80001C460026287810B9304600F0C5BD6B1CF2
:101E90002528029306D05146C8470028C0F2BC85C9
:101EA000013626E2182200210CA80AF021FE6B78E8
:101EB000252B59D06A1C174612F8013B2B2B00F03A
:101EC0008B8079D8202B00F08C80232B00F08E8023
:101ED0009DF8383003F04402442A03D16FF386138F
:101EE0008DF838309DF838300A9743F080038DF82C
:101EF00038303B782A2B7ED19DF8393043F00103EE
:101F00008DF839307B1C0A931A782E2A9DF83920D7
:101F10000CBF0121002161F341028DF839200BD162
:101F20005A1C0A925A782A2A7BD19DF8392042F00D
:101F300004028DF8392002331A4612F8010B6C287E
:101F400000F0CF807DD8682800F084806A2800F0F7
:101F5000D2804C2800F0D6809DF839206FF3C6025D
:101F60008DF839201A4680E0AA1C02928DF83B3089
:101F70009DF83930DF0740F1708154F804BBBBF1A4
:101F8000000F07DA9DF8382042F004028DF838205F
:101F9000CBF1000B580740F1698154F8048BB8F17C
:101FA000000F80F268819DF839306FF341038DF89E
:101FB00039304FF0FF385EE12D2B06D0302B87D122
:101FC0009DF8383043F0400303E09DF8383043F08B
:101FD00004038DF838306EE79DF8383043F008037D
:101FE000F7E79DF8383043F01003F2E79DF83830FA
:101FF00043F02003EDE70AA8FFF7DCFE0A9BBB4293
:1020000081D09DF838100F90C1F3400242EAD0729F
:10201000520062F07F0201F07D010A438DF8382002
:1020200071E70AA8FFF7C6FE9DF838301090C3F399
:10203000400242EAD07060F341038DF838300A9BC9
:102040007AE774289DF8391059D07A2884D10B4644
:10205000062141E0597868299DF839103AD10122CA
:1020600062F3C6018DF839109A1C134613F8012B40
:102070000293782A8DF83B2000F2C580572A4ED86B
:10208000412A04D0A2F14503022B00F2BC809DF846
:102090003A3002F0DF020421A2F1410861F30203A9
:1020A000D8F100029DF839108DF83A3042EB080261
:1020B00062F3C7110A068DF83910CBB200F1CB805C
:1020C00003F07802182A40F09B806FF3C6038DF866
:1020D000393082E00B46022161F3C6038DF83930B6
:1020E000C3E759786C299DF8391001D10422B7E76C
:1020F0000B460321F0E79DF839300521ECE70B464C
:102100000721E9E7BDF8383023F4F04323F0020358
:1021100043F4804343F00203ADF83830A5E7A2F161
:102120005803202B6FD801A151F823F0DF210000C4
:1021300007220000072200000722000007220000FB
:1021400007220000072200000722000007220000EB
:102150008F20000007220000DF210000B1210000D5
:102160008F2000008F2000008F2000000722000039
:10217000B121000007220000072200000722000012
:102180000722000015220000DF2100003922000094
:102190000722000007220000392200000722000069
:1021A000DF2100000722000007220000DF210000DD
:1021B0009DF83A30012161F302038DF83A309DF821
:1021C000393003F07803402B02BF9DF8381041F0FE
:1021D00001018DF83810632A05D0002306E09DF830
:1021E0003A300221E7E7003B18BF01239DF8382071
:1021F000C2F340010B4363F341028DF83820B7E688
:1022000013F0380FE9D09DF8383043F001038DF812
:102210003830E2E79DF83A30032262F302038DF88A
:102220003A309DF8393003F07803A3F1400CDCF12B
:10223000000343EB0C03D9E79DF83A30032262F325
:1022400002038DF83A309DF8393013F0780F14BF3F
:1022500001230023CAE70123C8E79DF93820002A9B
:10226000B4BFDDF83CB04FF0FF3B93E699077FF534
:10227000A0AEDDF840809DF839100023CDE90F3382
:102280009DF83A3003F00702042A09D18A0707D4DF
:102290009DF93920002AB4BF4FF00D084FF0060811
:1022A00003F00703012BC1F3C30137D1CB1E042B6D
:1022B00021D8DFE803F003090920200054F8043B8B
:1022C000DA17CDE90C3206E0073424F00704F4E80D
:1022D0000223CDE90C239DF83870BB0756D0029B32
:1022E0002A465146484608F03CFC0028C0F2948338
:1022F0000644029DC6E554F8043B01294FEAE37207
:10230000CDE90C3205D19DF830300C9300230D93AC
:10231000E1E70229DFD1BDF93030D1E7022B23D12B
:10232000CB1E042B13D8DFE803F0030A0A121200B5
:1023300022680C920023201D0D930446CBE7E01D7C
:1023400020F00700F0E80223CDE90C23F5E754F86C
:10235000043B0C9301294FF000030D93D3D00229C5
:10236000B9D1BDF83030D0E7042B09D1E31D23F0FB
:10237000070303F10804D3E90023CDE90C23AAE7FE
:10238000032B04BF54F8043B0C93A4E79DF83B20B7
:10239000782AAED8572A00F28C80252A00F0D48003
:1023A000242AA6D9412A03D0A2F14503022BA0D8A2
:1023B000DDE90C13002BC0F2B781380700F1B681BC
:1023C00017F0100718BF2027C3F30A55C3F31303F0
:1023D000CDE90813002D40F0AB8151EA030014BF92
:1023E00001200020DB0243EA5153C902462A45EA94
:1023F000010E43EAE57C08BF66225EEA0C0CCDE9DB
:10240000081300F00382002840F0CB81DDE90801C9
:102410004FF0000C41F00041A5F2FE3509916346F2
:102420004FF0050E15F1020FC0F2C281BCF1000F92
:1024300001D0CDE90801002DDDE9081000F3CD81C0
:1024400009980899C5F1040C1C3500FA05F5ACF1A2
:10245000200E21FA0CF120FA0EFE294341EA0E016A
:1024600020FA0CF0CDE9081002F0DF01472940F016
:10247000D481DD1C02DB984580F2CB81023AB8F1B1
:10248000000FD2B201DD08F1FF389DF83810880640
:1024900000F1C381B8F1000FD4BF00210121662AE9
:1024A000039140F0BC8113EB080540F1BA8100258F
:1024B000BAE1A2F15803202B3FF61BAF01A050F860
:1024C00023F000BFCB260000F3220000F32200001F
:1024D000F3220000F3220000F3220000F3220000A8
:1024E000F3220000F3220000B1230000F3220000D9
:1024F000752500006B260000B1230000B123000009
:10250000B1230000F32200006B260000F32200003C
:10251000F3220000F3220000F32200000127000054
:10252000CB260000CF260000F3220000F32200009B
:102530004F250000F3220000CB260000F32200000C
:10254000F3220000CB26000051461046A4E4B8F167
:10255000000F0C9A09DB4146104603920AF017FC63
:10256000039A0027151862B9C3E610460392FEF7D6
:1025700022FCF5E70C9B8DF84C3000270DF14D0542
:1025800013AAAB1A07B101339DF83A00C10640F116
:10259000378202330F9940060B4444BF10995B18F1
:1025A000BBF1000F23DDABEB030B9DF8383059076F
:1025B000C3F380081BD4580640F13682002F00F088
:1025C0003682514638460392C8470028C0F224821A
:1025D000039A474601364FF030085E445B46002BB5
:1025E000A6EB0B000BF1FF3B00F30E82064647B152
:1025F000514638460392C8470028C0F20D82039A1C
:1026000001369DF83A30590640F165829DF939301E
:10261000002BA6EB020680F219821746B846F31982
:1026200017F8010B702840F00582109F1E461F44CA
:10263000BB1B002B00F348822B46424651464846BE
:1026400008F08FFA0028C0F2E78130440646834440
:10265000ABEB0603002B7FF74CAE51462020C8475A
:102660000028C0F2D9810136F2E73D072BD417F0DC
:10267000100718BF2027DDE90C23002B05DA524292
:1026800063EB4303CDE90C232D270DF16503009384
:102690000EAADDE90C0113ABFFF7A0FB0246B8F16F
:1026A000000F0DF16505FFF65EAF9DF83810AB1A0F
:1026B0006FF3861198458DF838107FF654AFA8EB6C
:1026C00003030F934FE72B27D5E70027DDE70C988F
:1026D000002800F091810DF1650300930EAA13AB61
:1026E0000021FFF77BFBBDF83A3003F0EF0343F422
:1026F000F04343F010030246ADF83A300027CEE72E
:102700000C9B07293FF6F5ADDFE801F00C04060C41
:1027100008080C0C1E70ECE51E80EAE5F217C3E910
:102720000062E6E51E60E4E52D274DE62B274BE62B
:1027300040F2FF70854231D10132B948D2B20B4329
:10274000125C02F003021BD1012A11D149238DF83A
:102750004C304E238DF84D3046238DF84E309DF889
:1027600038306FF386138DF838300DF14F0507E7D9
:1027700069238DF84C306E238DF84D306623ECE7DD
:10278000012A07BF4E2341226E2361220CBF8DF820
:102790004C308DF84C308DF84D20DEE7002021E6DE
:1027A000013D49185B41002BFADACDE908132DE60B
:1027B000400840EAC1704908B1F1333FAC4605F129
:1027C0000105F5D20EFB01F5A0FB0E012944013BEA
:1027D0000CF102054FF0010C24E6023140F100003B
:1027E000CDE9081008A8CDE9032308F08BF9049B74
:1027F000039ADDE90810013D0133491840410028E2
:1028000005F1FF35F9DACDE9081014E600231D467D
:1028100016E6A8EB0308662237E600213FE608F13A
:102820000105102DA8BF10251021079100204FF0A1
:102830000061CDE90A01DDE90A10A5B9089D491931
:10284000099D40EB0505B5F1805F1BD2CDE9081568
:10285000662A40F09980002B23DC30218DF84C1043
:102860000DF14D052FE0490841EAC0714008CDE95E
:102870000A100AA8CDE90423013D08F043F9DDE977
:102880000423D8E7490841EAC57108A86D08CDE9D5
:102890000423CDE9081508F035F9059B049A0133A6
:1028A000D6E713AD079900290BDD07A908A8CDE9E4
:1028B000042308F03FF9059B05F8010B013B049A3E
:1028C000F0D10F9300239DF83810890602D4B8F197
:1028D000000F1DDD2E2105F8011B9BB1B8F1000F83
:1028E00016DD59424145A8BF41469DF83A000F9177
:1028F0000029A8EB0108D4BF0021012161F3451094
:102900008DF83A00B8F1000F02DD0799002956DC76
:102910000399002963D1CDF8408002F0DF014529F9
:1029200021D1002B2946B8BF5B4201F8022BB4BF6E
:102930002D222B22632B6A7009DD642093FBF0F2B9
:1029400002F1300CE91C85F802C000FB12330A20AA
:102950000D4693FBF0F200FB123302F1300C3033E2
:1029600005F802CB4B700F9B002B43DC109B002B18
:10297000D4BF002301239DF83A2063F3861200237D
:102980008DF83A202B70FBE507A908A8CDE90423B0
:1029900008F0D0F8DDE904239DF838108DF84C00DC
:1029A000302818BF03F1FF33880602D4B8F1000FB6
:1029B00012DD2E218DF84D100DF14E05A2E707A96D
:1029C00008A8CDE9042308F0B5F808F1FF38DDE9DF
:1029D000042305F8010B95E70DF14D0598E700215B
:1029E0001091284615F8011D3029FAD02E2918BF5C
:1029F000054692E70123BEE70A4D07466A1FC0E578
:102A0000010748BF0133C5E5514640460392C84718
:102A10000028039ABFF6E2AD1BB0BDE8F08F00BFFF
:102A2000FAED00003ADE00004FF02008D5E54FF047
:102A30003008D2E55146C8470028BFF6EFADEBE7B6
:102A400051460392C8470028039AE5DB1078374BBC
:102A5000C35C5B07174606EB020802F10102EFD4E4
:102A60009DF83A300F9E990607D4B044002EA8EB8B
:102A7000060206F1FF360FDC904638782E2808D182
:102A80005146C8470028C7DB002E08F1010809DCC1
:102A90000137A8EB07060EE051463020C847002852
:102AA000E4DAB9E751463020C847013EEAE751462B
:102AB000C8470028B0DB1D4AB846F31917F8010BC8
:102AC000125C5207F3D4B0E551463020C8470028C5
:102AD000A2DB0136ACE5D80601D4190707D551466B
:102AE00030200392C847002896DB039A01369DF8F0
:102AF0003A30DB0608D59DF83B0003925146C847A3
:102B0000002889DB039A01360F9F3744BB1B002B3B
:102B100001DC2B4692E5514630200392C84700283D
:102B2000FFF67AAF039A0136F0E700BFFBED000035
:102B30000B0706D5034BC35C03F00303012B08BF4F
:102B400020307047FBED000013B5044605F048F94E
:102B5000C0F307230193C0F307430093044A030E15
:102B60000821204608F0A5FB002002B010BD00BFE0
:102B70003BDE000010B5044609F0F1FD4FF47A7316
:102B8000A0FB032003FB0103D20B42EA4343204690
:102B9000024A082108F08DFB002010BD54DE000021
:102BA00010B5044603F01CFE084A034608212046DF
:102BB00008F07FFB064A2046082108F07AFB05480A
:102BC000214604F09DFF002010BD00BF63DE000021
:102BD00082DE0000392C000030B5014687B0044683
:102BE000114804F08DFF114A002312F8011BAA2995
:102BF00003D10133B3F5006FF7D1C3F5006164224F
:102C00004A43D20A059200254FF40062CDE903122F
:102C1000CDE901232046064B064A0095082108F01D
:102C200048FB284607B030BD192D0000001E0020CB
:102C3000E01D00208CDE0000F0B587B0D0F8A07059
:102C400004460D4609F042FC064605F0DDFC234B28
:102C5000234A002E08BF1E46224BCDE9004684427F
:102C600018BF1346082128461F4A08F022FBD4E962
:102C70000A23CDE9022394F90E301C4A009308215F
:102C8000237B284608F015FB204604F081FF626E86
:102C900000920346164A0821284608F00AFB05A9B7
:102CA000204609F017FC034630B1124A0821284695
:102CB00008F0FFFA07B0F0BD059A6423B91ACDE910
:102CC00000214B430C4AB3FBF7F30821CDE9027313
:102CD00028463B4608F0EDFAECE700BFD4DE0000E2
:102CE000A6E50000D2DE0000D7DE0000E3DE000033
:102CF0000FDF000026DF000053DF000010B50446A0
:102D000003F07CFD034A03460821204608F0D1FA6F
:102D1000002010BD8ADF0000F0B5D0F8A06089B0B7
:102D200004460D4607A909F0D5FB034630B1104A09
:102D30000821284608F0BDFA09B0F0BD204609F088
:102D4000C5FB07990B4A771A002818BF024664236F
:102D5000CDE90217CDE900267B43074AB3FBF6F322
:102D60000821CDE904632846234608F0A2FAE3E7E8
:102D700026DF0000D4DE0000A0DF0000034600686C
:102D800010B50C46114608B1027822B9024A204615
:102D900006F0E0FB204610BD77E0000010B50C689F
:102DA000D1E90112FFF7EAFF034A03460821204652
:102DB00008F07FFA002010BD7CE000002DE9F0470C
:102DC0008AB0054601A804F091FD019E1B4ADFF878
:102DD0007080DFF87090DFF870A0182303FB0066A6
:102DE0000821284608F065FA019CB44203D300206C
:102DF0000AB0BDE8F08705AF394614222046FFF738
:102E0000BDFF424603460821284608F052FA2046F4
:102E100009F00DFB0D4A002814BF4B46534608210C
:102E2000284608F046FA142320460949049302AACA
:102E3000CDE90257183409F004FBD6E79BE0000007
:102E4000A5E000008CE0000092E00000AAE0000095
:102E50009D2D00002DE9F043114BDFF8489053F809
:102E60002140013187B053F8218006460027A04554
:102E700003D8384607B0BDE8F083204609F0D7FAFA
:102E8000054658B1142201A92046FFF777FF4A46AC
:102E900003460821304608F00CFA2F461834E6E7BE
:102EA000F0D70000B1E0000010B5082104461E4A2A
:102EB00008F0FFF900212046FFF7CCFF20B91B4A9C
:102EC0000821204608F0F5F908212046184A08F0A4
:102ED000F0F901212046FFF7BDFF20B9134A082170
:102EE000204608F0E6F908212046124A08F0E1F9E8
:102EF00002212046FFF7AEFF20B90C4A08212046E8
:102F000008F0D7F9082120460B4A08F0D2F903212E
:102F10002046FFF79FFF20B9044A0821204608F009
:102F2000C8F9002010BD00BFB7E00000C6E00000F7
:102F3000CEE00000DDE00000EBE000008B1E022B85
:102F40002DE9F04107468846144633D860681022C0
:102F5000002106F02BFCB8F1020F06461ED0A06837
:102F60000A22002106F022FCC5B2214A2B46082184
:102F7000384608F09EF9B8F1040F1ED0102D0FD07E
:102F8000202D10D0082D10D13378DBB2194A08213A
:102F9000384608F08EF90020BDE8F0812025E4E7EE
:102FA00033889BB2F2E73368F0E7134A08213846CA
:102FB00008F07FF96FF01500EEE7E06810220021BD
:102FC00006F0F4FB0D4A034604460821384608F093
:102FD00070F9102D06D0202D07D0082DE5D1E4B2D0
:102FE0003470D8E7A4B23480D5E73460D3E700BFAB
:102FF00048E1000073E100005DE1000084E10000B1
:1030000070B50E4E044633780D4631B12BB1BDE894
:1030100070400B4A012108F04CB983F00103337072
:1030200033B1084A0821204608F043F901233370E0
:1030300029462046BDE8704008F060B9E60B002044
:1030400098E10000D3E1000070B504463C480378E5
:10305000182B02D10B78112B31D0013A0B465518A1
:103060009D4225D18B5C0A780370A2F13003092BB5
:10307000344C04D922F02003413B052B04D82368AB
:103080003149CA54013323602368022B34D1102202
:103090002D48002106F08AFB2C4A136803F8010B27
:1030A00013602B4A1368013313600023236023E06D
:1030B00013F8016B182ED3D11E78112ED0D1244DC8
:1030C000244A2B680821204608F0F3F82046002106
:1030D000FFF796FF204B187870B9204A2B681168CB
:1030E000042B0ADC08B111602B6013F003010BD133
:1030F000126813681BBA136070BD086800BA41F803
:10310000040B043B0120EBE75B4203F0030358BFD1
:103110005942022904D1126813885BBA9BB2EAE7CC
:103120000329E9D1106802681104C2F3074301F4CE
:103130007F010B4302F47F4213430360DCE700BFCF
:10314000E80B0020B4060020E40B0020B0060020AD
:10315000BC060020FDE10000E70B0020B8060020BF
:103160002DE9F74F0D462D49DFF8B480DFF8B49014
:10317000DFF8B4B000230B602C4988F80030064615
:103180000B601446012D274654F8043F21D91846F8
:1031900002224946019309F0D3FD019B88B92268B8
:1031A0009278003A18BF012203EB020A204902225A
:1031B000504609F0C5FD30B9012388F80030013DC3
:1031C000E0E70022F0E749465046FDF7EAFDB0B9D6
:1031D000043700221146786806F06CFA154B00227D
:1031E00011461860786806F065FA134B13491860A9
:1031F0003046FFF705FF002003B0BDE8F08F9AF8D6
:1032000000202D2AE5D19AF80120002AE1D053466A
:103210005A460821304608F04CF8D0E7B4060020A2
:10322000E70B002017E200001DE20000BC060020B2
:103230001AE20000B0060020B80600204930000065
:1032400038B5154642680C46116890688B60C1E934
:10325000004507F0B4FED06807F0B1FE1368002106
:10326000D960A36823B19B6C13B1054920469847E8
:10327000A3689B6A0BB120469847002038BD00BF69
:1032800037B0000013B5094809F0D1F858B1084A21
:1032900006491268074800240094012300F03EFD0F
:1032A000204602B010BD6FF01200FAE7C4D3000050
:1032B0008CD8000074D5000010B581680446083130
:1032C00001F0B2FAA168034A20460831BDE8104077
:1032D00001F032BAD3E20000014907F054BF00BF49
:1032E00088DF000037B504468068D0F864325A079A
:1032F0000D4605D5002107F084FFE06808F04EFB7D
:10330000E368DB686BB9002D37D0A068423007F066
:1033100034FFA36898B303F1420103F5A17009F0EB
:1033200007FDA268E0680DF106034232294608F065
:1033300038FB58B9A06800F5A171423009F0F8FCDB
:10334000A068423007F019FFADF80600204608F0EB
:1033500076F9A368D3F860329B0603D50949606902
:1033600007F011FF204601F043F8A368BDF80620DE
:10337000DA879A87204608F00BF903B030BD83F84E
:103380004201CEE710D600002DE9F04F00239FB098
:10339000CDE90533836804464233039308F055F9B9
:1033A000204608F0E1F810B96069FFF795FFA068C2
:1033B00014220021083009F09BFB204600F06AFF30
:1033C000A168E0688A8F4231002608F021FB204680
:1033D00008F0A3FB4FF0FF38B146B24611AF02969A
:1033E0003546B346DDE90532012A00F0D6800B2BC5
:1033F00040F2AE80069B022B40F0AE80894B8A4A99
:10340000012114E0039A0223394606A800F01AFEAF
:1034100006997A680392034629B96FF00705284692
:103420001FB0BDE8F08F012905D120B17F4A2046A9
:1034300008F0B2F9F1E7059B4BB3386801F018FAD0
:1034400098B166B1A5680D9608350CAE0FCE0FC5C4
:1034500033682B602046FFF72FFF0125DFE7744A12
:103460000121204608F098F9D7E7059B7BB13A681F
:103470002946204601F060FB022800F08E800328D8
:1034800005D0059B0133059301230293AAE7BAF106
:10349000000F05D1396807AA584607F0B7FF05465F
:1034A000043708F1FF38002D40D0029AEB6842B192
:1034B00013B3204608F0C9F8204608F069F85D4AC1
:1034C000CEE7CBB1A368DDF81490AE4603F1080C4B
:1034D000BEE80F00ACE80F00DEF80030CCF800309A
:1034E000AB684BB96B7CFE2B01BF95F8108009F1DE
:1034F000010308F1FF380593D5F804C0BCF1000FB3
:1035000008D0AE46BEE80F000CAE0FC6DEF80030A5
:1035100033606646AB46B8F1000F03D1069B022B21
:103520007FF460AF059B013305935BE7059B63B9AF
:10353000A368DB690BB1DB683BB93F4B00933F4AA3
:10354000119B0121204608F027F94FF0010AE2E71C
:10355000B8F1000F7FF456AF029B4BB1204608F044
:1035600001FBA2680C23423211A905A800F06AFDF4
:10357000059DA0681EAB03EB8503002243F8342CA5
:10358000436973B9002E3FF448AFC368B3423FF4B8
:1035900061AF0D9600F1080557E7059B0B2BDBD9B2
:1035A00028E7037EA5EB0905B3B1417E4FF6FF7214
:1035B000FF2918BF0A469D4202D313449D420BD9EE
:1035C00083681F4A0121204608F0E6F82046FFF7ED
:1035D00073FE6FF0150522E74FF4006100F51970D6
:1035E00007F097FDA06800F53E7007F023FEA36882
:1035F00011AA294602EB89025B69204698470546D5
:10360000A0684FF0FF324FF0FF3300F53E7007F037
:10361000C7FDA0686FF4006100F5197007F088FD20
:10362000FDE600BF56E30000B3E00000E1E2000069
:10363000F5E2000013E3000042E3000015E600009D
:103640007AE300008368022210B51A719A6B04466F
:10365000BAB983F84220DA63D3F86432DB040BD5BD
:103660000321084B084A08F097F8A0686FF48051CE
:1036700000F5197007F05CFD2046BDE8104000F031
:10368000C9BF10BD95E30000A7E000002DE9F04F91
:1036900004468068ABB0012100F5197007F039FDD0
:1036A000A3681B79022B17D100230B93A3686068D2
:1036B0009E6B03681D690BABC6B110221DA9A847FC
:1036C0000B9A4AB11DA92046B047A3689B6B002BFB
:1036D000ECD12046FFF7B6FFA0686FF0010100F5BE
:1036E00019702BB0BDE8F04F07F022BD01220DF19B
:1036F0002B01A8470B9B002BEED09DF92B209DF8AA
:103700002B30A068002AD1DB4279032A00F2038320
:10371000DFE812F004007B029E0201030D2B1DD096
:103720000A2B1BD0B0F864226FF3CA02A0F86422FF
:10373000092B4FD035D8002BB8D0082B00F0C98109
:103740005A1C7E49D2B2525C12F0970F00F0CD8124
:10375000012107F056FD9DF82B10E5E0D0F864221A
:10376000C2F3C7022AB1D0F86422C2F3C70293425F
:10377000DED1B0F86422818F63F3CA02A0F864221C
:1037800059B907F03EFDE06808F008F96069FFF7F5
:10379000A3FD2046FFF756FF88E72046FFF7F4FD1C
:1037A000F7E71B2B13D07F2BCAD1D0F860329A07D2
:1037B0007FF57CAF012107F024FDA368D3F86032C8
:1037C0001B0700F18E81204608F026F86EE70123E2
:1037D00043716BE7D0F860329F077FF567AF012137
:1037E00007F00FFDA068838FFF2B3FF45FAFC28F00
:1037F00000F1420100F5A17009F052F9A268D38FDF
:103800001344002583F842511DA90C2302F5A1722F
:103810000DA800F017FC0D990C293FF647AF2AAB15
:1038200003EB810343F8345C51B1A368DA8F13448E
:1038300093F84120424BD35C1E0751D401294ED14D
:1038400000250C950C9B2AAA02EB8303002653F853
:1038500034AC504607F091FCB0468146049637469A
:1038600018AA3946284600F0B5FC8346002843D103
:10387000012E67D10C9B2AAA02EB830353F8340C68
:1038800007F07BFCA268064608324146284600F055
:10389000A1FC0546006807F070FC864206D0296846
:1038A000821B92B23144204607F0B4FFA068C38F58
:1038B000034493F84220224BD15C11F0080137D128
:1038C000D0F86032DD072ED507F0A5FC2021204678
:1038D00000F06CFEA068012107F09DFCE6E60139CE
:1038E00000200EAB009301900CAB1DAA07F0B9FDB0
:1038F00005460028A6D1D9E6DBF800004A46514625
:1039000009F01EFA68B9DBF80000FDF754FA049BD1
:10391000834238BF03469BB2002E08BFB8460493CB
:10392000013601379CE72021204600F03FFEBDE62E
:103930000121204607F05FFEB8E600BFFAED000067
:10394000FBED00007FF6B2AE0C9B2AAA02EB8303CC
:1039500053F834AC504607F010FCA3680690A3F867
:1039600030B0DFF8D4B20596CDF80C80A268039988
:103970000832284600F02EFC039B013307460393D0
:10398000BAF1000F52D13F68002F59D1A2681786B3
:10399000059B013B0593E9D16069FFF79DFC20463B
:1039A00000F038FE0C9B2AAA02EB830308F1010900
:1039B00053F8340C07F0E1FB414613AA07462846AA
:1039C00000F008FC8046A068D8F80010FF2200F53F
:1039D000A17009F0C9F9D8F800A04FF6FF7818AA2D
:1039E0004946284609F1010B00F0F4FB002863D09A
:1039F000A368006803F5A173002213F801CB815C72
:103A0000614505D121B101324FF6FF718A42F4D1EF
:103A10000FB1BA4208DB424506F1FF36A8BF424665
:103A2000012E1FFA82F847D0D946D8E7006800284F
:103A3000A9D0069A514609F083F90028A3D095E74A
:103A4000584607F09AFB049BA168C21892B24B8DAE
:103A500009925846089307F090FB0790384607F004
:103A60008CFB099ADDE90713A2EB0009A068B0F806
:103A700030C0591A91FBF2F292B2BCFBF2F102FB98
:103A800011C20CF1010E92B21FFA89F9A0F830E0D0
:103A90005AB96A4A00975B460621204607F07CFE29
:103AA0004946204600F054FC72E7654A3B46062131
:103AB000204607F071FEF3E7B8F1000F3FF4F6ADD2
:103AC000A8EB070292B20AEB0701204607F0A2FE1C
:103AD000ECE5D0F8603299077FF5E8AD012107F0F9
:103AE00090FB204607F0B3FEE0E5D0F86022970790
:103AF0007FF5DCAD013B162B3FF6D8AD01A252F8A5
:103B000023F000BFED3C0000613B0000693B00007A
:103B1000C7370000E13C0000873B0000AD360000E5
:103B2000AD360000AD360000AD3600008F3B000022
:103B3000973B0000AD360000C13B0000AD360000F1
:103B4000CB3B0000AD360000AD360000AD360000C6
:103B5000AD360000CF3B0000AD360000FB3B00005F
:103B6000204607F079FDA1E5204607F06EFD2046CE
:103B700007F0FAFC10B96069FFF7AEFBA0680121FD
:103B800007F03FFB05E6204607F06EFD8EE5204678
:103B900007F073FD8AE5D0F860329E0603D5294907
:103BA000606907F0F0FAA368D3F860329D0603D588
:103BB0002549606907F0E7FA204600F02BFD75E51E
:103BC00000212046FFF78EFB70E50121F9E7204632
:103BD00007F035FDA068002380F84230C36301215F
:103BE00007F00FFBA368D3F8603298067FF55EAD4F
:103BF0001649606907F0C7FA58E5204600F03EFC18
:103C0000A068012107F0FDFA50E55B2B01D10223EA
:103C1000DEE5D0F86022910706D5622B08D14FF07F
:103C2000FF31204600F0AAFBA36800225A713DE54F
:103C3000662BF9D10121F4E7A5E50000D9E30000E6
:103C4000A7E0000015D600001AD6000010D600002C
:103C500000224271D0F8602292077FF527AD313BF8
:103C60001B2B3FF623AD01A252F823F0E93C0000E4
:103C7000F53C0000073D0000DD3C0000AD360000D3
:103C8000AD360000AD360000AD360000AD360000A8
:103C9000AD360000AD360000AD360000AD36000098
:103CA000AD360000AD360000AD360000CB3B000065
:103CB000C13B0000873B0000613B0000AD360000C7
:103CC000E13C0000AD360000ED3C0000AD360000E8
:103CD000AD360000AD360000F93C0000032343710F
:103CE000204607F0B2FCE1E403234371204607F0CD
:103CF000A6FCDBE403234371D0F8601201F001015C
:103D000081F00101E8E503234371D0F860329B079D
:103D10007FF5CCAC57E500235AE500BF2DE9F04311
:103D2000044680688846D0F80C1389B015461F46B3
:103D3000002961D14FF4447208F0DAFEA3682268CA
:103D4000E0681A6007F0CFFEA06800F53E7008F04A
:103D5000DEFB4FF42A794FF41A76A068304408F05D
:103D600053FEA0680022831901214844103608F050
:103D70002EFEB6F52A7F09F11409EED1A369A068D9
:103D8000002602211E6000F5197007F0C2F9A36831
:103D90001B4A9A62186807F0F0F9A368194A83F879
:103DA0002C00606866F38205C3F8605203684146E0
:103DB0001D682346A8470546D0B9A36801221A7199
:103DC000D4E9090100220023CDE906230E23039341
:103DD000109B0495CDE9017300940B4B4FF40062E6
:103DE00003F076FFA368216AC3F80C0303F0C0FE5A
:103DF000284609B0BDE8F0836FF07705F8E700BF0B
:103E000018005000A5B10000593E000010B504464E
:103E100080680379012B19D14FF0FF324FF0FF3347
:103E200000F53E7007F0BCF90821204600F0E8FAE2
:103E30000849606907F0A7F92046FFF703FCA0686E
:103E400000F53E7007F0F6F9002010BD6FF0850018
:103E5000FBE700BF87DF0000F8B504464068036851
:103E600000219B68984700283FD12046FFF7CEFFEE
:103E700000283AD11D4F1E4EA06800F52A704FF061
:103E8000FF324FF0FF33032104F090FD0546A06898
:103E90004FF0FF324FF0FF3300F53E7075B107F081
:103EA0007FF920462B46134A012107F075FCA068D4
:103EB000BDE8F84000F53E7007F0BCB907F070F9B6
:103EC000606803685B6903B198473A46204602215F
:103ED00007F03DF920463246002107F038F9A06886
:103EE00000F53E7007F0A6F9C6E7F8BDB9B10000CD
:103EF0008D360000DFE3000010B50D4A04460821AE
:103F000007F0D7F920460B4A082107F0D2F92046DE
:103F1000094A082107F0CDF92046084A082107F090
:103F2000C8F92046064A002100F006FC002010BD1A
:103F3000F6E3000034E4000093E40000E7E400004E
:103F400081E500002DE9F04716461F462B4ADFF8B1
:103F5000B080DFF8B090DFF8B0A00B46082104462F
:103F600007F0A7F90025AF4234D9735D4A4608210E
:103F7000204607F09EF90135102D23D1234ADFF8A2
:103F80008880DFF88C90DFF88CA00821204607F0AD
:103F900090F90025BD422BD2735D13F8092012F071
:103FA000970F08BF2E2352460821204607F081F9BB
:103FB0000135102D14D12046174ABDE8F0470821DD
:103FC00007F077B96A07CED152460821204607F09C
:103FD00070F9C8E742460821204607F06AF9CAE7A7
:103FE0006B07D7D142460821204607F062F9D1E796
:103FF00042460821204607F05CF9D9E797E5000022
:10400000A4E500009EE50000A6E50000A8E500008C
:10401000FBED0000CAE50000AAE5000010B504466B
:1040200013460A4601460648FDF724FF23691B791B
:1040300023B12046BDE8104007F063B910BD00BFB2
:104040001BB300002DE9F74F1F46DFF884810023E2
:1040500005460E46144603609A4699462378002B7F
:1040600000F0B18013F8083013F0080302D004F810
:10407000019BF3E729684A1CBA422A6046F82140AE
:1040800000F0A1809A4694F800B0BBF1000FE5D093
:10409000BAF1000F40F08380BBF1270F06D0BBF1CF
:1040A0005C0F00F08480BBF1220F71D1204607F035
:1040B00050F9611C0246204608F000FDDA46E2E7AE
:1040C000204607F046F9611C0246204608F0F6FC3F
:1040D0004FF0000AD7E7302926D14FF0000B02231A
:1040E000E15CA1F130005FFA80FCBCF1070FDAB2AD
:1040F00018D8013340EACB0B052B5FFA8BFBEFD1CD
:104100001A46511E214420460192009107F021F9E0
:10411000019A0230821A2046009908F0CFFC04F878
:1041200001BBB0E7022AECD1782936D14FF0000B61
:104130000223E25CA2F130015FFA81FCBCF1090FBD
:10414000D8B213D841EA0B12032B5FFA82FB0BD1D2
:104150000423591E214420460193009107F0F9F8E9
:10416000019B821CD21AD6E70323E2E7A2F1610188
:10417000052903D8573A42EA0B12E5E7A2F14101BB
:10418000052901D8373AF6E7022806D00323E0E7ED
:1041900018F80B301B073FF561AF013473E7D345C7
:1041A0008ED0BBF15C0FF8D161788A4593D120465F
:1041B00007F0CFF804F1010B02465946204608F0FB
:1041C0007DFC5C465FE7504603B0BDE8F08F00BF62
:1041D000FBED000010B50B46144650B90E490F4ACE
:1041E000521AB3EBD20F0FD201EBC3014C68204639
:1041F00010BD816841B14A68097839B11846214635
:1042000090472368002BF2D10024F0E714204343A9
:10421000D418D358F6E700BFA0D50000F0D50000B1
:104220002DE9F843064607F094F8054656BBBDE86D
:10423000F8834CB16A1C9BB20130D21A304408F0AA
:104240003DFC2D1BADB24C460137BBB26A1E9342FA
:104250001846ECDA325C12F808201207F4D5013364
:104260009BB29AB29542EFD9F25C18F8022012F094
:10427000080906EB030103F1010CDAD00134A4B202
:104280006346EEE70027DFF808803C46DDE700BF25
:10429000FBED0000F8B5846894F84230054653B948
:1042A000AB689A8FDA87F8BD013A92B2A2872AB931
:1042B00084F84220F4E7114E04F14200A28F8318E3
:1042C00013F8013C9B5D13F00803EDD183549FB2BA
:1042D00010FA83F110F807C016F80CC01CF0080F94
:1042E00003F10103F3D1002FDAD0A68F731CDA1B80
:1042F000F61B08F0E3FBA687D2E700BFFBED00004A
:104300008368D3F860329B0603D50249406907F001
:104310000AB9704720D60000014907F004B900BF70
:1043200088DF00000A1E0DDC0ED042238168D1F820
:104330006012890608D5002A04494069B8BF524274
:1043400007F0F1B84123F1E7704700BFC6E5000070
:104350000A1E0DDC0ED044238168D1F86012890654
:1043600008D5002A04494069B8BF524207F0DBB8BB
:104370004323F1E7704700BFC6E500002DE9F8438D
:104380000C1E06462FDA644224B24FF0FF35DFF8E8
:104390005C80A4B2AFB21EE0B368DA8FB3F83CE041
:1043A00003F1420C00201346991A09B213B9B5F172
:1043B000FF3F0BD09E4501D1012D07D01CF8039083
:1043C00019F8089019F0070F09D148B1304607F0E5
:1043D00012F9013CA4B2002CDED1BDE8F883012023
:1043E0003B449BB2E0E70125D1E700BFFBED0000B5
:1043F000826802494069423207F095B8A7E00000A0
:1044000008290A4616D8836893F82E10914211D0D5
:10441000082A83F82E20D3F8603205D0990609D5F2
:104420000549406907F07FB89B0603D503494069F9
:1044300007F079B8704700BFCDE5000025D6000031
:1044400038B50D4609780446FFF7DAFF6A78072A7F
:1044500010D8A36893F82F1091420BD083F82F2027
:10446000D3F860329B0605D560690349BDE8384042
:1044700007F059B838BD00BFD6E50000F8B583682D
:104480009A8F0546002A4ED0D88F00284BD0413055
:10449000184403F142060346C41AB342A4B21946B3
:1044A0000DD311F80179202F3BD01946013B087834
:1044B000202804D001349E42A4B21946F5D9631CC9
:1044C0004E1C121B1944304608F0F8FAA9688A8F6E
:1044D000121B92B28A870A440023614282F842305A
:1044E00009B2284607F087F8AB68D3F860329A061D
:1044F00003D50D49686907F016F833460B4A0821C1
:10450000284607F049F92846FFF7FAFEAB68D3F8CA
:1045100060329B0607D568690549BDE8F84007F099
:1045200002B80B46B8E7F8BD2AD60000A7E00000A5
:104530002ED600002DE9F04104460D4617460AB17B
:10454000FFF7DEFEA368D3F86022D88F520700F190
:10455000420003441FD51846FCF72DFCDFF84480C9
:10456000064696B9A3689A8FDA87204606F0E8FFD8
:1045700020B107B115B16069FFF7CEFE6942204650
:1045800009B2BDE8F04107F036B86069414606F06F
:10459000CAFF013EE5E7044A0821204607F0FCF87F
:1045A000E0E700BFD2DE0000A7E0000013B583689B
:1045B0008DF80710D3F860220446D00721D5D98F93
:1045C0009A8F8A421DD0481C19449DF80720D8872D
:1045D00081F84220D3F86012890710D5D3F86032F1
:1045E00060690B4913F0040F18BF2A2206F09BFFE5
:1045F000204606F0B9FF10B16069FFF78DFE02B0EA
:1046000010BD01220DF10701204607F0D2F8F6E7B0
:10461000CAE5000083680A4A1B6810B504460221F7
:1046200007F0BAF8A368D3F860329B0707D5204695
:10463000FFF7DEFE2046BDE8104006F0B9BF10BD12
:10464000A7E00000014907F013B900BF88DF0000B0
:104650002DE9F047044690460E46002967D0DFF862
:10466000D4900025735D13F809301A071ED4304624
:10467000FCF7A1FBA3685A8D80B2401BA2EB080394
:10468000984206EB050A13D95146002711F8010B91
:1046900019F800C01CF0080F02D00A282FD03B46A2
:1046A00008EB0700824229D90137EFE70135D9E746
:1046B00053460027B84216D013F8012B0A2A05EBFF
:1046C000070919D1606906F01CFE51463A4620469A
:1046D00006F0F6FF6069FFF7B5FF4146204609F195
:1046E0000105FFF735FE6069711907F0C1F86069CF
:1046F000BDE8F047FFF7A6BF0137DBE71F4660695B
:1047000006F0FFFD3A465146204606F0D9FF3D44EB
:10471000735D19F803301B0707D46069FFF792FF38
:1047200041462046FFF714FEA1E70135F0E7BDE85A
:10473000F08700BFFBED00002DE9F04F0F46002190
:104740008DB0044616460D4607AA384601F1010809
:10475000FFF740FDA8B98DB126B1324608212046A9
:1047600007F01AF8DFF8B480DFF8B4B000214B1C72
:1047700007AA38460393FFF72DFD60B90DB0BDE8D9
:10478000F08F006810B1FCF716FB80B2854238BF8D
:1047900005464146D8E7D0E900A94046FCF70BFBA7
:1047A0000490BAF1000F22D09AF80020FAB15046D6
:1047B000FCF701FB20222E1A8DF81B204346194AD4
:1047C000CDF800A00821204606F0E6FFB6B200238F
:1047D0009AB2B2420DD343465A460821204606F00B
:1047E000DBFFB9F1000F0ED16069FFF72BFF0399D2
:1047F000BDE701220DF11B012046059306F060FF85
:10480000059B0133E4E7049B6A1C02EB430292B26E
:1048100049462046FFF71CFFE9E700BFF1E500002D
:10482000DFE50000DAE30000F7B5064608680D464C
:10483000B8B1FCF7C0FA84B20B4F3846FCF7BBFAAC
:104840002B680A4A009704440821304606F0A4FF6A
:10485000A4B269682246304603B0BDE8F040FFF7D5
:10486000F7BE0446E8E700BFEDE50000DAE300002C
:1048700010B507490446FCF794FA38B105492046BB
:10488000FCF78FFAB0FA80F0400910BD0120FCE778
:10489000E3E50000E6E5000010B58368D3F8603278
:1048A0009B06044603D50449406906F0F2FFA3685D
:1048B000024A9A62002010BD32D600001800500053
:1048C00008B58369034A1B68082106F0F2FC002042
:1048D00008BD00BFF4E500007FB50F4E044600257B
:1048E000A268E0680DF10E0302F5A172012107F044
:1048F00058F8BDF80E00A36850B103F5A1730093FA
:1049000032462B460821204606F0D3FC0135E7E766
:1049100083F8420104B070BD04E60000022907B527
:104920000DD1536801930E4B009313680D4A01217A
:1049300006F0BFFC6FF0150003B05DF804FB836860
:10494000094AD3F8603213F0020F4FF00801074B09
:1049500018BF1346064A06F0ACFC0020ECE700BF87
:104960001BE6000012E6000064E000000EE6000016
:1049700030E6000010B58368D3F860329A0604462A
:1049800003D50749406906F084FFA368D3F8603275
:104990009B0603D50349606906F07BFF002010BD2C
:1049A00039D600003ED60000F0B5012985B0044696
:1049B0000DD053680193594B00931368584A012155
:1049C00006F077FC6FF01505284605B0F0BD83684A
:1049D000D3F860329A0603D55249406906F059FF70
:1049E0006FF0F9012046FFF79DFCFA212046FFF702
:1049F000AFFCA06800254FF48072294600F5A17035
:104A00008DF80B5008F074F84749606906F041FFD3
:104A1000606906F076FC4FF47A76606803680122DC
:104A20001F690DF10B0103ABB847039B53B9013E5E
:104A30004FF47A70B6B207F094FE002EEDD16FF00D
:104A4000850534E09DF80B30A1681B2B5AD091F8F6
:104A500042211B2AE1D1522B54D10D44002385F869
:104A6000423191F843215B2A54D101F5A2751F46CA
:104A7000022615F8010B32463B2806F10106B6B2B4
:104A80002BD1B6F5807FDAD002F2431211FA82F20E
:104A9000002312F8015B55BBFA2B28BFFA23FA2F2B
:104AA0004B853B4628BFFA2381F842510B85A3680A
:104AB000D3F860329B0603D51C49606906F0E9FE15
:104AC000002D81D0A3681A4A9A620321194A204610
:104AD00006F0EFFB6FF0070576E707EB870300EBC7
:104AE0004303303BB6F5807F9FB2C2D1A7E703EB0B
:104AF0008303013605EB4305B6B2303DFF2EABB262
:104B0000C7D99CE74A190135ADB2092D82F8423167
:104B100083D9002381F8423191E700BF1BE60000F2
:104B200012E6000044D600003FEA000048D600002C
:104B30001800500041E600002DE9F04F074689B00B
:104B40001546894621B90324204609B0BDE8F08FF7
:104B5000104606F0CEFF0028F5D04FF00008414681
:104B6000022424E05C463CE029460AF5A17008F0E6
:104B70001AF9064600284ED0FCF71DF982B2601CD7
:104B800001323146304407F099FF224659463046FB
:104B900007F086FF4FF020033355BAF84000044475
:104BA0000134AAF8404008F10108002401994B1C87
:104BB00003AA48460193FFF70DFB0646F8B131689A
:104BC0000022284606F0D1F90028EFD1D6F800B02F
:104BD000D7F808A0BBF1000FC4D05846FCF7EBF89B
:104BE00084B2BAF8402001322244B2F5807FBBDDA6
:104BF0000A4A2B460321384606F0CEFD0124B8F1BF
:104C0000000FA1D0B8682A4600F1400100F5A1705C
:104C100006F0D5FB98E70224F1E700BF44EA000064
:104C20002DE9F84305464FF02003EFF3118683F397
:104C30001288BFF36F8F0E4B1C689CB10D4FDFF8CD
:104C400038804FF00C09D4E90132002D08BF13461B
:104C50002BB198F8142009FB02F2B85C984724683D
:104C6000002CF0D186F31188BFF36F8FBDE8F88375
:104C7000E8090020F4090020940B002000F01F0335
:104C800001229A400A4BBFF35B8F400903EB80007F
:104C900050E8003F43EA020140E8001CBCF1000F6D
:104CA000F6D1BFF35B8F1A4214BF0120002070477A
:104CB000000A002030B51D4B1C7DBFF35B8F04F054
:104CC0001F0301229A401A4B610985B0D04303EBC0
:104CD000810353E8001F01EA000543E8005CBCF1D2
:104CE000000FF6D1BFF35B8F114217D0114D0C228C
:104CF00002FB045207CA01AB83E807000E4A7AB1EF
:104D000093E8070006F09CFF0020FFF789FF0C23C3
:104D10005C432A1900232B51C2E9013305B030BD91
:104D200082F31188BFF36F8FEEE700BF940B002072
:104D3000F0090020F409002041BC00002DE9F041F9
:104D4000374B384C1D7D88B080462846FFF796FFCC
:104D500060B96F4642462946384606F012FF97E88A
:104D600007000C2606FB054686E807000C236B436C
:104D7000E218E05C6E0905F01F0700283BD0B8F18F
:104D8000FF3F10D0D2F808E02748284A4FF4004CE3
:104D900000210023EEFB0C01FBF7D0FD0121A8EB65
:104DA000000007F0BEFC03F097F90120FFF738FF81
:104DB000BFF35B8F1E4B0122BA4003EB860353E81F
:104DC000001F114343E800100028F8D1BFF35B8FA8
:104DD0000C2303FB054494E8070005AB83E80700B8
:104DE000144A1AB193E8070006F017FFFFF762FFB5
:104DF00003F040FB0120104ABFF35B8F0123BB404F
:104E0000DB4302EB860656E8002F1A4046E80021F5
:104E10000029F8D1BFF35B8F08B0BDE8F08100BF77
:104E2000940B0020F40900203F420F0040420F0085
:104E3000F00900201BBC0000000A002001491022DC
:104E40000A60704710ED00E072B6404080F31188B0
:104E5000BFF36F8FBFF34F8F30BF62B6BFF36F8F5B
:104E6000704700BF72B6494081F3118820BF80F3BC
:104E7000118862B6704700BF43B2002B08DB0122E5
:104E800000F01F0002FA00F05B09024A42F823001A
:104E9000704700BF00E100E0054B420900F01F0031
:104EA00053F82220012303FA00F01040704700BF9E
:104EB00000E100E043B2002BA8BF03F1604301F121
:104EC0000101B8BF064B4FEA4111ACBF03F5614386
:104ED00000F00F00C9B2B4BF195483F80013704733
:104EE00014ED00E030BFFFF7FDBF00BF0F4A08B56B
:104EF0000F4B22F07F029A60BFF34F8FBFF36F8F8B
:104F0000D3F8882022F47002C3F88820EFF31483CA
:104F100023F0040383F31488BFF36F8F02F074FD52
:104F200003F0F0FB00F0D6F902F078FD000000007D
:104F300000ED00E00A4A0B4993680968C3F8B01015
:104F40000949C3F8AC004B6843F080534B60002321
:104F500083F31188BFF36F8F9368D3F8B000704765
:104F6000940B002024DD000000ED00E013498A6866
:104F70004FF030001044EFF3098C80E8F01F202040
:104F800080F31288BFF36F8F0D4F4FF00066CA6930
:104F90008A603E60D2F8AC000023C2F8AC3080F3E7
:104FA000118804B5104600F0DDF9BDE8044002F1B7
:104FB000300090E8F01F8CF309887047940B0020B4
:104FC00004ED00E01EF0040F0CBFEFF30880EFF3D8
:104FD0000980816911F8021C0229FFD001B506F091
:104FE000D7FD01BD42F8203C009B42F81C3C0A4919
:104FF000019B42F8183C029B42F8143C21F001014D
:105000004FF0807342F8043C42F8081C0023203A19
:105010000265C0F8AC307047F1AA00000A4A0346A6
:10502000906878B113F1160FD0F89C0005D0A0F16C
:1050300020029A4205D8834203D2814228BF002031
:1050400070470020704700BF940B002008B5094B43
:1050500098600D46144600F085F9204685F30988CE
:10506000002163B681F31188BFF36F8F0022002304
:1050700005F03EFD940B002001B572B60B4A906915
:1050800000281EBF0021916107F032FA62B6EFF3EB
:105090000580A0F110004FEAC0000549014409C98C
:1050A0009847BDE80140034908470000940B0020E1
:1050B000F4D30000B9500000044B9968D8698842C5
:1050C00003D003494FF080520A607047940B0020D0
:1050D00004ED00E038B5194B14469A6A9A6A9A6A48
:1050E0000546900719D5586B9A6A120615D519B15D
:1050F0009A6A22F080029A629A6A9A6A9A6AD10639
:105100000ED49B6A9A070BD400200C4A936A43F092
:10511000FF0393620023237038BD6FF01500EBE7A7
:10512000064B5B681B05EFD52946FFF777FF002884
:10513000EAD080F309880220E7E700BF00ED00E035
:105140000D4B9A6A9A6A9A6A920508D59A6B9A6A7E
:10515000120404D518B19A6A22F400429A62064BEE
:105160009A6A9A6AD20558BF9A6A9A6A002042F4EB
:105170007F429A620870704700ED00E0F0B54B4B3B
:105180005B688BB00C46C3F30803002585F31188D8
:10519000BFF36F8F02F07F41B1F17F4F11D102F069
:1051A0000C0108290DD0160701D404460125002260
:1051B000033B8DF80720032B71D8DFE803F0045B75
:1051C0005F632C46F3E7394AD36A13F0020366D1D2
:1051D000D16A002915DBD16A490012D5A16931F8DD
:1051E000020C4DF6027188420AD092F8281039B3A9
:1051F0000DF1070201212046FFF76CFF034600E096
:1052000023689DF80720CAB902AE04F12007206880
:105210006168324603C20834BC421646F7D1099A87
:10522000002D3ED0C2F3080121B96FEA52226FEA85
:105230004222099202A9184606F0A8FC0BB0F0BD64
:1052400092F8291029B10DF107010120FFF778FF2D
:10525000D4E7518D89B20029D3D0916A916A916ABD
:10526000916A916A916A916A6FEA01416FEA11410C
:105270009162C6E70DF107020021BCE70DF10701BD
:105280000020E3E7094B9A6A9A6A9A6A9A6A9A6ACC
:105290009A6A9A6A6FEA02426FEA12429A6200239D
:1052A000AFE722F4FF7222F00102C2E700ED00E056
:1052B000024A536943F010035361704700ED00E068
:1052C000EFF30880EFF3098101B57246FFF756FF4F
:1052D00001BD00BF044800232021C2180133302B38
:1052E00082F80013F9D1704700E100E008F00CF8F3
:1052F000202080F311880B484FF0AA014FF402627E
:1053000007F0F6FB07484FF40261401880F3098864
:10531000EFF314800221084380F31488BFF36F8FEA
:10532000FFF7E4FDE01D0020064B9B68834207D198
:10533000EFF3058323B1044A536843F0805353606D
:1053400003F078B9940B002000ED00E0024B034A13
:105350000348012100F070B8000004200000002084
:10536000DCDA0000D0F89C20054B203A1A60054A90
:105370002021C3E901121846012100F067B800BFDF
:10538000040A002000000B15F0B51F4F00268E42C6
:1053900001DB1046F0BD44689CB353B104F1FF3CFF
:1053A00014EA0C0F18D11F2C16D905681CEA050F3A
:1053B00012D1202C0568D0F808C0D2B20FD9B4F1B0
:1053C000004F0ED8013CB4FA84F4C4F11F04640009
:1053D000072A4CEA040406D96FF01502D9E708241D
:1053E000F6E73E24F4E725F01F05154345F01005C8
:1053F00044F00104C7F89820C7F89C500132C7F860
:10540000A04001360C30C2E700ED00E0044B05225D
:10541000C3F89420BFF34F8FBFF36F8F704700BF67
:1054200000ED00E0BFF35F8F024B0022C3F8942031
:10543000704700BF00ED00E010B5034C0123227857
:10544000FFF7A2FF207010BD070C002008B5094A25
:1054500000231278FFF798FF10F1160F02D0064ACA
:10546000072800DD08BDC2F89800C2F8A03001305E
:10547000F6E700BF070C002000ED00E014490868C3
:10548000082810B521D8FFF7CDFF124C496800223B
:10549000904201F10C0105D10F4B1870FFF7B6FFD8
:1054A000002010BDC4F8982051F80C3C23F01F03D5
:1054B000134343F01003C4F89C3051F8043C43F00C
:1054C0000103C4F8A0300132E2E74FF0FF30E8E713
:1054D000E8DA000000ED00E0070C0020014B186046
:1054E000704700BF7C000020F8B5084F06460D4607
:1054F0000024AC4208DA3B6898470A28305504F18A
:10550000010401D00D28F4D12046F8BD7800002018
:10551000F8B50A4F0D46461EC0F10104A3199D427D
:1055200001DC2846F8BD73780A2B02D13B680D20B8
:1055300098473B6816F8010F9847EFE77C0000207A
:1055400008B502480521FFF7E3FFFEE796EA0000F1
:1055500010B5074C2368C2180648C0F1005101F588
:1055600080218A423ABFC01822604FF0FF3010BD40
:10557000100A0020682C00204FF02002EFF3118366
:1055800082F31288BFF36F8F044A0121C2F84015DD
:1055900083F31188BFF36F8F0020704700E0014054
:1055A00020B1034B800143F001031847704700BF4F
:1055B00050D6000010B50A4802F0A6F9044658B1CA
:1055C000042106F048FB002805DB0221204606F0F6
:1055D00042FB00EAE07010BD6FF01200FBE700BF75
:1055E000ABEA0000084B70B5C31A0D4607499B1083
:1055F000044659430648402206F058FB2B46014614
:105600002046BDE870401847240A0020B76DDBB67D
:105610007CD3000073B50C4C0C4A4023041B009350
:105620000D460B460A49A41061430646094806F098
:1056300069FB011E05DA30462B4602B0BDE870401A
:10564000184702B070BD00BF240A002075BD0000DD
:10565000B76DDBB67CD3000010B507F080F84FF4CF
:105660007A72A0FB0203074C02FB0131C00B40EA37
:105670004140C90BC4E90001BDE81040012006F01B
:1056800096BD00BF50040020002270B501210446E1
:105690001046FFF70FFC0020FFF7EEFB0F4801F06C
:1056A00011FA0F4B984215D106F077FD26690D4986
:1056B000304605F0C1F900280BDB246909490125B2
:1056C000356404F11C0005F0B7F9002801DBE5643E
:1056D000002070BD6FF00400FBE700BF1D57000005
:1056E0000000AD0B74DB000001460C2309484B435E
:1056F00070B5C418D4E90E5600224033A263184492
:1057000006F0C1FA2DB132462B460348BDE8704081
:10571000184770BD240A00207CD3000010B1012876
:1057200004D07047034B1B6C5B0701D1FFF7DCBF54
:10573000704700BF240A002008B54FF02003EFF3A4
:10574000118183F31288BFF36F8F114A136843F0FE
:10575000020013F0010310600CD04FF08042D2F829
:105760000C34D2F80C2413F0010303D0094806F0DE
:105770008AFA012381F31188BFF36F8F23B1BDE84B
:1057800008400020FFF7B0BFBDE80840FFF764BF46
:10579000740A0020640A00207FB500220123CDE9AD
:1057A000022304ABCDE90433094ACDF800D06B469F
:1057B000CDF804D006F0D7FA002805DB4FF480427C
:1057C0000023684602F008FC07B05DF804FB00BF48
:1057D00093BD00002DE9F74F4FF080480546D8F8FB
:1057E000186406F480364FF02003EFF3118783F33B
:1057F0001288BFF36F8F06F0B2FF4FF47A73A0FBED
:10580000034003FB0100D8F80C94D8F80C34254B66
:10581000D3F800B0244BE40BD3F800A044EA404492
:1058200087F31188BFF36F8F204ADFF88480214F00
:105830002846082105F03DFD19F0010FDFF87890AA
:105840001E4AB9F81A300093284614BF43463B4617
:10585000082105F02EFDA4EB0B03009328465B46C0
:10586000174A0821A4EB0A0405F023FD53462846F5
:10587000144A0094082105F01CFD2846124A08210C
:1058800005F017FDB9F83630009328460B4A002E74
:1058900014BF43463B46082105F00BFD002003B032
:1058A000BDE8F08F5004002058040020B7EA000043
:1058B00089DF0000B2EA0000240A0020C2EA0000EA
:1058C000DCEA0000FEEA00001FEB000010B506F065
:1058D00046FF4FF47A72A0FB0203074C02FB013132
:1058E000C00B40EA4140C90BC4E90001BDE81040CB
:1058F000012001F0F7B800BF58040020084BBFF3A7
:105900005B8F53E8002F22F0020143E800100028CB
:10591000F7D1BFF35B8FD30701D4FFF7D7BF704731
:10592000740A00202DE9F0413949BFF35B8F074627
:10593000012251E8003F41E800200028F9D1BFF3DF
:105940005B8F33B9334934484B60CB608A6005F0D4
:1059500086F87B1E012B2FD8012F07D14FF08043F3
:10596000D3F81C3403F00303012B25D006F0A8FD67
:10597000044618B9294B1B78002B41D14FF0200366
:10598000EFF3118683F31288BFF36F8F0124DFF8E2
:1059900090804FF08045D5F81834D5F81824D203FC
:1059A0000CD503F00303012B01D0012F06D10CB35A
:1059B00086F31188BFF36F8FBDE8F081ACB130463C
:1059C000FFF750FAD5F81835002BE4D1D5F80421AB
:1059D000002AE0D0C5F80431D5F804310123C5F818
:1059E0001835C8F88031AB60D5E70021212002F0DE
:1059F000F1FDE7E74FF080430222C3F80423DBE721
:105A00004FF080430222C3F808230646BFE700BFD9
:105A1000780A0020140A0020400A002038100020D4
:105A200000E100E008B5084B0848186006F0FFFCEC
:105A300038B10748FFF752FD0548FCF7B3F80020DE
:105A400008BD6FF01200FBE77C0A0020C4D3000001
:105A5000555A00000A2838B5074D044604D1286875
:105A600083680D215B68984728688368E1B25B68AA
:105A70009847204638BD00BF7C0A002030B54068FA
:105A8000047B01F01F05B2F5005F45EA441585B0BF
:105A90004FF0000404D1284601F0D2FA002032E091
:105AA000B2F5804FCDE902442FD1B3F5003F0CBFD2
:105AB000042305238DF80830836823FA01F1C90710
:105AC0002FD4B2F5A03F2CD16A09012A05F01F039B
:105AD0001C4A03F5E07318BF4FF0A04252F8233080
